{
  "contractName": "ChainList",
  "abi": [
    {
      "constant": true,
      "inputs": [
        {
          "name": "",
          "type": "uint256"
        }
      ],
      "name": "MSL1",
      "outputs": [
        {
          "name": "",
          "type": "uint256"
        }
      ],
      "payable": false,
      "stateMutability": "view",
      "type": "function"
    },
    {
      "constant": true,
      "inputs": [],
      "name": "seller",
      "outputs": [
        {
          "name": "",
          "type": "address"
        }
      ],
      "payable": false,
      "stateMutability": "view",
      "type": "function"
    },
    {
      "constant": false,
      "inputs": [
        {
          "name": "_price",
          "type": "uint256"
        }
      ],
      "name": "accept",
      "outputs": [],
      "payable": true,
      "stateMutability": "payable",
      "type": "function"
    },
    {
      "constant": true,
      "inputs": [
        {
          "name": "",
          "type": "uint256"
        },
        {
          "name": "",
          "type": "uint256"
        }
      ],
      "name": "stockClient1",
      "outputs": [
        {
          "name": "",
          "type": "uint256"
        }
      ],
      "payable": false,
      "stateMutability": "view",
      "type": "function"
    },
    {
      "constant": true,
      "inputs": [
        {
          "name": "",
          "type": "uint256"
        }
      ],
      "name": "ProdA",
      "outputs": [
        {
          "name": "",
          "type": "uint256"
        }
      ],
      "payable": false,
      "stateMutability": "view",
      "type": "function"
    },
    {
      "constant": true,
      "inputs": [
        {
          "name": "",
          "type": "uint256"
        },
        {
          "name": "",
          "type": "uint256"
        }
      ],
      "name": "Del1",
      "outputs": [
        {
          "name": "",
          "type": "uint256"
        }
      ],
      "payable": false,
      "stateMutability": "view",
      "type": "function"
    },
    {
      "constant": false,
      "inputs": [],
      "name": "kill",
      "outputs": [],
      "payable": false,
      "stateMutability": "nonpayable",
      "type": "function"
    },
    {
      "constant": false,
      "inputs": [
        {
          "name": "_product",
          "type": "uint256"
        },
        {
          "name": "_client",
          "type": "address"
        }
      ],
      "name": "addClient",
      "outputs": [],
      "payable": false,
      "stateMutability": "nonpayable",
      "type": "function"
    },
    {
      "constant": false,
      "inputs": [
        {
          "name": "_organisation",
          "type": "address"
        },
        {
          "name": "_product",
          "type": "uint256"
        }
      ],
      "name": "deposit",
      "outputs": [],
      "payable": true,
      "stateMutability": "payable",
      "type": "function"
    },
    {
      "constant": true,
      "inputs": [],
      "name": "getLast",
      "outputs": [
        {
          "name": "",
          "type": "uint256"
        }
      ],
      "payable": false,
      "stateMutability": "view",
      "type": "function"
    },
    {
      "constant": false,
      "inputs": [
        {
          "name": "_organisation",
          "type": "address"
        },
        {
          "name": "_name",
          "type": "string"
        },
        {
          "name": "_product",
          "type": "uint256"
        },
        {
          "name": "_status",
          "type": "string"
        },
        {
          "name": "_client",
          "type": "address"
        }
      ],
      "name": "newInOut",
      "outputs": [],
      "payable": false,
      "stateMutability": "nonpayable",
      "type": "function"
    },
    {
      "constant": true,
      "inputs": [
        {
          "name": "",
          "type": "uint256"
        },
        {
          "name": "",
          "type": "uint256"
        }
      ],
      "name": "prices1",
      "outputs": [
        {
          "name": "",
          "type": "uint256"
        }
      ],
      "payable": false,
      "stateMutability": "view",
      "type": "function"
    },
    {
      "constant": false,
      "inputs": [
        {
          "name": "_product",
          "type": "uint256"
        }
      ],
      "name": "automaticProduction",
      "outputs": [],
      "payable": false,
      "stateMutability": "nonpayable",
      "type": "function"
    },
    {
      "constant": true,
      "inputs": [
        {
          "name": "",
          "type": "uint256"
        }
      ],
      "name": "products",
      "outputs": [
        {
          "name": "id",
          "type": "uint256"
        },
        {
          "name": "name",
          "type": "string"
        },
        {
          "name": "organisation",
          "type": "address"
        },
        {
          "name": "product",
          "type": "uint256"
        },
        {
          "name": "date",
          "type": "uint256"
        },
        {
          "name": "stock1",
          "type": "uint256"
        },
        {
          "name": "status",
          "type": "string"
        }
      ],
      "payable": false,
      "stateMutability": "view",
      "type": "function"
    },
    {
      "constant": true,
      "inputs": [
        {
          "name": "",
          "type": "uint256"
        },
        {
          "name": "",
          "type": "uint256"
        }
      ],
      "name": "Acc1",
      "outputs": [
        {
          "name": "",
          "type": "uint256"
        }
      ],
      "payable": false,
      "stateMutability": "view",
      "type": "function"
    },
    {
      "constant": false,
      "inputs": [
        {
          "name": "_name",
          "type": "string"
        },
        {
          "name": "_organisation",
          "type": "address"
        },
        {
          "name": "_product",
          "type": "uint256"
        }
      ],
      "name": "autoNewIn",
      "outputs": [],
      "payable": false,
      "stateMutability": "nonpayable",
      "type": "function"
    },
    {
      "constant": true,
      "inputs": [
        {
          "name": "",
          "type": "uint256"
        },
        {
          "name": "",
          "type": "uint256"
        }
      ],
      "name": "Price1",
      "outputs": [
        {
          "name": "",
          "type": "uint256"
        }
      ],
      "payable": false,
      "stateMutability": "view",
      "type": "function"
    },
    {
      "constant": false,
      "inputs": [
        {
          "name": "_product",
          "type": "uint256"
        }
      ],
      "name": "releaseOrder",
      "outputs": [],
      "payable": false,
      "stateMutability": "nonpayable",
      "type": "function"
    },
    {
      "constant": true,
      "inputs": [
        {
          "name": "",
          "type": "uint256"
        },
        {
          "name": "",
          "type": "uint256"
        }
      ],
      "name": "Ord1",
      "outputs": [
        {
          "name": "",
          "type": "uint256"
        }
      ],
      "payable": false,
      "stateMutability": "view",
      "type": "function"
    },
    {
      "constant": true,
      "inputs": [],
      "name": "balance",
      "outputs": [
        {
          "name": "",
          "type": "uint256"
        }
      ],
      "payable": false,
      "stateMutability": "view",
      "type": "function"
    },
    {
      "constant": true,
      "inputs": [],
      "name": "globalClientCounter",
      "outputs": [
        {
          "name": "",
          "type": "uint256"
        }
      ],
      "payable": false,
      "stateMutability": "view",
      "type": "function"
    },
    {
      "constant": true,
      "inputs": [
        {
          "name": "",
          "type": "uint256"
        },
        {
          "name": "",
          "type": "uint256"
        }
      ],
      "name": "Pay1",
      "outputs": [
        {
          "name": "",
          "type": "uint256"
        }
      ],
      "payable": false,
      "stateMutability": "view",
      "type": "function"
    },
    {
      "constant": true,
      "inputs": [
        {
          "name": "",
          "type": "uint256"
        }
      ],
      "name": "stock1",
      "outputs": [
        {
          "name": "",
          "type": "uint256"
        }
      ],
      "payable": false,
      "stateMutability": "view",
      "type": "function"
    },
    {
      "constant": false,
      "inputs": [
        {
          "name": "_product",
          "type": "uint256"
        },
        {
          "name": "_client",
          "type": "address"
        }
      ],
      "name": "acceptOrder",
      "outputs": [],
      "payable": false,
      "stateMutability": "nonpayable",
      "type": "function"
    },
    {
      "constant": true,
      "inputs": [],
      "name": "globalCounter",
      "outputs": [
        {
          "name": "",
          "type": "uint256"
        }
      ],
      "payable": false,
      "stateMutability": "view",
      "type": "function"
    },
    {
      "constant": true,
      "inputs": [
        {
          "name": "",
          "type": "uint256"
        }
      ],
      "name": "clientsNb",
      "outputs": [
        {
          "name": "",
          "type": "uint256"
        }
      ],
      "payable": false,
      "stateMutability": "view",
      "type": "function"
    },
    {
      "constant": false,
      "inputs": [
        {
          "name": "_organisation",
          "type": "address"
        },
        {
          "name": "_product",
          "type": "uint256"
        },
        {
          "name": "_quantity",
          "type": "uint256"
        },
        {
          "name": "_price",
          "type": "uint256"
        }
      ],
      "name": "placeOrder",
      "outputs": [],
      "payable": false,
      "stateMutability": "nonpayable",
      "type": "function"
    },
    {
      "constant": true,
      "inputs": [
        {
          "name": "",
          "type": "uint256"
        }
      ],
      "name": "clients",
      "outputs": [
        {
          "name": "id",
          "type": "uint256"
        },
        {
          "name": "organisation",
          "type": "address"
        },
        {
          "name": "stock",
          "type": "uint256"
        },
        {
          "name": "accepted",
          "type": "uint256"
        },
        {
          "name": "delivered",
          "type": "uint256"
        },
        {
          "name": "paid",
          "type": "uint256"
        },
        {
          "name": "remPrice",
          "type": "uint256"
        },
        {
          "name": "ordered",
          "type": "uint256"
        },
        {
          "name": "agreedPrice",
          "type": "uint256"
        },
        {
          "name": "product",
          "type": "uint256"
        },
        {
          "name": "productCounter",
          "type": "uint256"
        }
      ],
      "payable": false,
      "stateMutability": "view",
      "type": "function"
    },
    {
      "constant": true,
      "inputs": [
        {
          "name": "_organisation",
          "type": "address"
        },
        {
          "name": "_product",
          "type": "uint256"
        }
      ],
      "name": "getCounter",
      "outputs": [
        {
          "name": "",
          "type": "uint256"
        }
      ],
      "payable": false,
      "stateMutability": "view",
      "type": "function"
    },
    {
      "inputs": [],
      "payable": false,
      "stateMutability": "nonpayable",
      "type": "constructor"
    },
    {
      "anonymous": false,
      "inputs": [
        {
          "indexed": false,
          "name": "_globalCounter",
          "type": "uint256"
        },
        {
          "indexed": false,
          "name": "_organisation",
          "type": "address"
        },
        {
          "indexed": false,
          "name": "_name",
          "type": "string"
        },
        {
          "indexed": false,
          "name": "_product",
          "type": "uint256"
        },
        {
          "indexed": false,
          "name": "_date",
          "type": "uint256"
        },
        {
          "indexed": false,
          "name": "_stock",
          "type": "uint256"
        },
        {
          "indexed": false,
          "name": "_status",
          "type": "string"
        }
      ],
      "name": "logProductInOut",
      "type": "event"
    },
    {
      "anonymous": false,
      "inputs": [
        {
          "indexed": false,
          "name": "_clientCounter",
          "type": "uint256"
        },
        {
          "indexed": false,
          "name": "_organisation",
          "type": "address"
        }
      ],
      "name": "logClientIn",
      "type": "event"
    }
  ],
  "bytecode": "0x606060405234156200001057600080fd5b336000806101000a81548173ffffffffffffffffffffffffffffffffffffffff021916908373ffffffffffffffffffffffffffffffffffffffff16021790555033600860006101000a81548173ffffffffffffffffffffffffffffffffffffffff021916908373ffffffffffffffffffffffffffffffffffffffff1602179055506040805190810160405280600160ff168152602001600160ff168152506003906002620000c0929190620000c7565b5062000139565b8260028101928215620000fe579160200282015b82811115620000fd578251829060ff16905591602001919060010190620000db565b5b5090506200010d919062000111565b5090565b6200013691905b808211156200013257600081600090555060010162000118565b5090565b90565b61258b80620001496000396000f300606060405260043610610175576000357c0100000000000000000000000000000000000000000000000000000000900463ffffffff1680630393b3551461017a57806308551a53146101b157806319b05f4914610206578063219aa2eb1461021e57806332fc1d001461025e5780633454376c1461029557806341c0e1b5146102d557806342891963146102ea57806347e7ef241461032c5780634d622831146103635780635301ca531461038c578063594efecb1461047357806378933177146104b35780637acc0b20146104d657806391d457da1461066757806392aa1617146106a7578063a650d0281461072c578063ae2f75891461076c578063aeca7e521461078f578063b69ef8a8146107cf578063b7085534146107f8578063c13a256c14610821578063c1ded2d314610861578063cb23617a14610898578063d396a7a9146108da578063dc56e68c14610903578063f3847fd71461093a578063f88af21d1461098e578063fdd897d314610a37575b600080fd5b341561018557600080fd5b61019b6004808035906020019091905050610a8d565b6040518082815260200191505060405180910390f35b34156101bc57600080fd5b6101c4610aa7565b604051808273ffffffffffffffffffffffffffffffffffffffff1673ffffffffffffffffffffffffffffffffffffffff16815260200191505060405180910390f35b61021c6004808035906020019091905050610acd565b005b341561022957600080fd5b6102486004808035906020019091908035906020019091905050610b32565b6040518082815260200191505060405180910390f35b341561026957600080fd5b61027f6004808035906020019091905050610b65565b6040518082815260200191505060405180910390f35b34156102a057600080fd5b6102bf6004808035906020019091908035906020019091905050610b7f565b6040518082815260200191505060405180910390f35b34156102e057600080fd5b6102e8610bb2565b005b34156102f557600080fd5b61032a600480803590602001909190803573ffffffffffffffffffffffffffffffffffffffff16906020019091905050610c47565b005b610361600480803573ffffffffffffffffffffffffffffffffffffffff16906020019091908035906020019091905050611107565b005b341561036e57600080fd5b610376611205565b6040518082815260200191505060405180910390f35b341561039757600080fd5b610471600480803573ffffffffffffffffffffffffffffffffffffffff1690602001909190803590602001908201803590602001908080601f0160208091040260200160405190810160405280939291908181526020018383808284378201915050505050509190803590602001909190803590602001908201803590602001908080601f0160208091040260200160405190810160405280939291908181526020018383808284378201915050505050509190803573ffffffffffffffffffffffffffffffffffffffff16906020019091905050611223565b005b341561047e57600080fd5b61049d6004808035906020019091908035906020019091905050611b7c565b6040518082815260200191505060405180910390f35b34156104be57600080fd5b6104d46004808035906020019091905050611baf565b005b34156104e157600080fd5b6104f76004808035906020019091905050611c39565b60405180888152602001806020018773ffffffffffffffffffffffffffffffffffffffff1673ffffffffffffffffffffffffffffffffffffffff168152602001868152602001858152602001848152602001806020018381038352898181546001816001161561010002031660029004815260200191508054600181600116156101000203166002900480156105ce5780601f106105a3576101008083540402835291602001916105ce565b820191906000526020600020905b8154815290600101906020018083116105b157829003601f168201915b50508381038252848181546001816001161561010002031660029004815260200191508054600181600116156101000203166002900480156106515780601f1061062657610100808354040283529160200191610651565b820191906000526020600020905b81548152906001019060200180831161063457829003601f168201915b5050995050505050505050505060405180910390f35b341561067257600080fd5b6106916004808035906020019091908035906020019091905050611c99565b6040518082815260200191505060405180910390f35b34156106b257600080fd5b61072a600480803590602001908201803590602001908080601f0160208091040260200160405190810160405280939291908181526020018383808284378201915050505050509190803573ffffffffffffffffffffffffffffffffffffffff16906020019091908035906020019091905050611ccc565b005b341561073757600080fd5b610756600480803590602001909190803590602001909190505061201c565b6040518082815260200191505060405180910390f35b341561077757600080fd5b61078d600480803590602001909190505061204f565b005b341561079a57600080fd5b6107b96004808035906020019091908035906020019091905050612075565b6040518082815260200191505060405180910390f35b34156107da57600080fd5b6107e26120a8565b6040518082815260200191505060405180910390f35b341561080357600080fd5b61080b6120ae565b6040518082815260200191505060405180910390f35b341561082c57600080fd5b61084b60048080359060200190919080359060200190919050506120b4565b6040518082815260200191505060405180910390f35b341561086c57600080fd5b61088260048080359060200190919050506120e7565b6040518082815260200191505060405180910390f35b34156108a357600080fd5b6108d8600480803590602001909190803573ffffffffffffffffffffffffffffffffffffffff16906020019091905050612101565b005b34156108e557600080fd5b6108ed6121b7565b6040518082815260200191505060405180910390f35b341561090e57600080fd5b61092460048080359060200190919050506121bd565b6040518082815260200191505060405180910390f35b341561094557600080fd5b61098c600480803573ffffffffffffffffffffffffffffffffffffffff169060200190919080359060200190919080359060200190919080359060200190919050506121d7565b005b341561099957600080fd5b6109af6004808035906020019091905050612297565b604051808c81526020018b73ffffffffffffffffffffffffffffffffffffffff1673ffffffffffffffffffffffffffffffffffffffff1681526020018a81526020018981526020018881526020018781526020018681526020018581526020018481526020018381526020018281526020019b50505050505050505050505060405180910390f35b3415610a4257600080fd5b610a77600480803573ffffffffffffffffffffffffffffffffffffffff16906020019091908035906020019091905050612311565b6040518082815260200191505060405180910390f35b600381600281101515610a9c57fe5b016000915090505481565b600860009054906101000a900473ffffffffffffffffffffffffffffffffffffffff1681565b600860009054906101000a900473ffffffffffffffffffffffffffffffffffffffff1673ffffffffffffffffffffffffffffffffffffffff166108fc829081150290604051600060405180830381858888f193505050501515610b2f57600080fd5b50565b600d82600281101515610b4157fe5b0181815481101515610b4f57fe5b9060005260206000209001600091509150505481565b600581600281101515610b7457fe5b016000915090505481565b601182600281101515610b8e57fe5b0181815481101515610b9c57fe5b9060005260206000209001600091509150505481565b6000809054906101000a900473ffffffffffffffffffffffffffffffffffffffff1673ffffffffffffffffffffffffffffffffffffffff163373ffffffffffffffffffffffffffffffffffffffff16141515610c0d57600080fd5b6000809054906101000a900473ffffffffffffffffffffffffffffffffffffffff1673ffffffffffffffffffffffffffffffffffffffff16ff5b6000600b60018403600281101515610c5b57fe5b0160008154809291906001019190505550600a60008154809291906001019190505550600d60018403600281101515610c9057fe5b018054806001018281610ca3919061248e565b916000526020600020900160008090919091505550600f60018403600281101515610cca57fe5b018054806001018281610cdd919061248e565b916000526020600020900160008090919091505550601160018403600281101515610d0457fe5b018054806001018281610d17919061248e565b916000526020600020900160008090919091505550601360018403600281101515610d3e57fe5b018054806001018281610d51919061248e565b916000526020600020900160008090919091505550601560018403600281101515610d7857fe5b018054806001018281610d8b919061248e565b916000526020600020900160008090919091505550601760018403600281101515610db257fe5b018054806001018281610dc5919061248e565b916000526020600020900160008090919091505550601960018403600281101515610dec57fe5b018054806001018281610dff919061248e565b916000526020600020900160008090919091505550600b60018403600281101515610e2657fe5b0154905061016060405190810160405280600a5481526020018373ffffffffffffffffffffffffffffffffffffffff168152602001600d60018603600281101515610e6d57fe5b0160018403815481101515610e7e57fe5b9060005260206000209001548152602001600f60018603600281101515610ea157fe5b0160018403815481101515610eb257fe5b9060005260206000209001548152602001601160018603600281101515610ed557fe5b0160018403815481101515610ee657fe5b9060005260206000209001548152602001601360018603600281101515610f0957fe5b0160018403815481101515610f1a57fe5b9060005260206000209001548152602001601560018603600281101515610f3d57fe5b0160018403815481101515610f4e57fe5b9060005260206000209001548152602001601760018603600281101515610f7157fe5b0160018403815481101515610f8257fe5b9060005260206000209001548152602001601960018603600281101515610fa557fe5b0160018403815481101515610fb657fe5b906000526020600020900154815260200184815260200182815250601b6000600a5481526020019081526020016000206000820151816000015560208201518160010160006101000a81548173ffffffffffffffffffffffffffffffffffffffff021916908373ffffffffffffffffffffffffffffffffffffffff16021790555060408201518160020155606082015181600301556080820151816004015560a0820151816005015560c0820151816006015560e082015181600701556101008201518160080155610120820151816009015561014082015181600a01559050507f278d4b43ab1a3d0ee2a16e5c089cf8ccb65c2d5c69df9cadae6a5e71a501674b8183604051808381526020018273ffffffffffffffffffffffffffffffffffffffff1673ffffffffffffffffffffffffffffffffffffffff1681526020019250505060405180910390a1505050565b6000806111148484612311565b915060136001840360028110151561112857fe5b016001830381548110151561113957fe5b906000526020600020900154600f6001850360028110151561115757fe5b016001840381548110151561116857fe5b9060005260206000209001540390508060136001850360028110151561118a57fe5b016001840381548110151561119b57fe5b906000526020600020900160008282540192505081905550346015600185036002811015156111c657fe5b01600184038154811015156111d757fe5b9060005260206000209001600082825403925050819055503460076000828254019250508190555050505050565b600080600954111561121b576009549050611220565b600090505b90565b6000806009600081548092919060010191905055506112428786612311565b915060405180807f696e0000000000000000000000000000000000000000000000000000000000008152506002019050604051809103902060001916846040518082805190602001908083835b6020831015156112b4578051825260208201915060208101905060208303925061128f565b6001836020036101000a038019825116818451168082178552505050505050905001915050604051809103902060001916141561146e57600860009054906101000a900473ffffffffffffffffffffffffffffffffffffffff1673ffffffffffffffffffffffffffffffffffffffff168773ffffffffffffffffffffffffffffffffffffffff1614156113ae57600060056001870360028110151561135557fe5b015411151561136357600080fd5b600180860360028110151561137457fe5b016000815480929190600101919050555060056001860360028110151561139757fe5b016000815480929190600190039190505550611469565b60006011600187036002811015156113c257fe5b01600184038154811015156113d357fe5b9060005260206000209001541115156113eb57600080fd5b600d600186036002811015156113fd57fe5b016001830381548110151561140e57fe5b90600052602060002090016000815480929190600101919050555060116001860360028110151561143b57fe5b016001830381548110151561144c57fe5b906000526020600020900160008154809291906001900391905055505b6116fa565b60405180807f6f757400000000000000000000000000000000000000000000000000000000008152506003019050604051809103902060001916846040518082805190602001908083835b6020831015156114de57805182526020820191506020810190506020830392506114b9565b6001836020036101000a03801982511681845116808217855250505050505090500191505060405180910390206000191614156116f957600860009054906101000a900473ffffffffffffffffffffffffffffffffffffffff1673ffffffffffffffffffffffffffffffffffffffff168773ffffffffffffffffffffffffffffffffffffffff1614156116b857600860009054906101000a900473ffffffffffffffffffffffffffffffffffffffff1673ffffffffffffffffffffffffffffffffffffffff168373ffffffffffffffffffffffffffffffffffffffff16141515156115c857600080fd5b60018086036002811015156115d957fe5b0160008154809291906001900391905055506115f58386612311565b905060116001860360028110151561160957fe5b016001820381548110151561161a57fe5b906000526020600020900160008154809291906001019190505550600f6001860360028110151561164757fe5b016001820381548110151561165857fe5b9060005260206000209001600081548092919060019003919050555060136001860360028110151561168657fe5b016001820381548110151561169757fe5b906000526020600020900160008154809291906001900391905055506116f8565b600d600186036002811015156116ca57fe5b01600183038154811015156116db57fe5b906000526020600020900160008154809291906001900391905055505b5b5b60e06040519081016040528060095481526020018781526020018873ffffffffffffffffffffffffffffffffffffffff168152602001868152602001428152602001600180880360028110151561174d57fe5b0154815260200185815250601c600060095481526020019081526020016000206000820151816000015560208201518160010190805190602001906117939291906124ba565b5060408201518160020160006101000a81548173ffffffffffffffffffffffffffffffffffffffff021916908373ffffffffffffffffffffffffffffffffffffffff160217905550606082015181600301556080820151816004015560a0820151816005015560c08201518160060190805190602001906118159291906124ba565b50905050600860009054906101000a900473ffffffffffffffffffffffffffffffffffffffff1673ffffffffffffffffffffffffffffffffffffffff168773ffffffffffffffffffffffffffffffffffffffff1614156119e5577fdd5c255b4b0a25f470e34bb17e17870fe74cd56163ce6b4bc077b561b9418e66600954888888426001808c036002811015156118a857fe5b01548a604051808881526020018773ffffffffffffffffffffffffffffffffffffffff1673ffffffffffffffffffffffffffffffffffffffff1681526020018060200186815260200185815260200184815260200180602001838103835288818151815260200191508051906020019080838360005b8381101561193957808201518184015260208101905061191e565b50505050905090810190601f1680156119665780820380516001836020036101000a031916815260200191505b50838103825284818151815260200191508051906020019080838360005b8381101561199f578082015181840152602081019050611984565b50505050905090810190601f1680156119cc5780820380516001836020036101000a031916815260200191505b50995050505050505050505060405180910390a1611b73565b7fdd5c255b4b0a25f470e34bb17e17870fe74cd56163ce6b4bc077b561b9418e6660095488888842600d60018c03600281101515611a1f57fe5b0160018903815481101515611a3057fe5b9060005260206000209001548a604051808881526020018773ffffffffffffffffffffffffffffffffffffffff1673ffffffffffffffffffffffffffffffffffffffff1681526020018060200186815260200185815260200184815260200180602001838103835288818151815260200191508051906020019080838360005b83811015611acb578082015181840152602081019050611ab0565b50505050905090810190601f168015611af85780820380516001836020036101000a031916815260200191505b50838103825284818151815260200191508051906020019080838360005b83811015611b31578082015181840152602081019050611b16565b50505050905090810190601f168015611b5e5780820380516001836020036101000a031916815260200191505b50995050505050505050505060405180910390a15b50505050505050565b601982600281101515611b8b57fe5b0181815481101515611b9957fe5b9060005260206000209001600091509150505481565b600080600560018403600281101515611bc457fe5b01546001808503600281101515611bd757fe5b0154019150600082600360018603600281101515611bf157fe5b0154031115611c345781600360018503600281101515611c0d57fe5b015403905080600560018503600281101515611c2557fe5b01600082825401925050819055505b505050565b601c60205280600052604060002060009150905080600001549080600101908060020160009054906101000a900473ffffffffffffffffffffffffffffffffffffffff169080600301549080600401549080600501549080600601905087565b600f82600281101515611ca857fe5b0181815481101515611cb657fe5b9060005260206000209001600091509150505481565b6000600960008154809291906001019190505550611cea8383612311565b9050600d60018303600281101515611cfe57fe5b0160018203815481101515611d0f57fe5b906000526020600020900160008154809291906001019190505550601160018303600281101515611d3c57fe5b0160018203815481101515611d4d57fe5b9060005260206000209001600081548092919060019003919050555060e06040519081016040528060095481526020018581526020018473ffffffffffffffffffffffffffffffffffffffff1681526020018381526020014281526020016001808503600281101515611dbc57fe5b015481526020016040805190810160405280600281526020017f696e000000000000000000000000000000000000000000000000000000000000815250815250601c60006009548152602001908152602001600020600082015181600001556020820151816001019080519060200190611e379291906124ba565b5060408201518160020160006101000a81548173ffffffffffffffffffffffffffffffffffffffff021916908373ffffffffffffffffffffffffffffffffffffffff160217905550606082015181600301556080820151816004015560a0820151816005015560c0820151816006019080519060200190611eb99291906124ba565b509050507fdd5c255b4b0a25f470e34bb17e17870fe74cd56163ce6b4bc077b561b9418e6660095484868542600d60018903600281101515611ef757fe5b0160018803815481101515611f0857fe5b906000526020600020900154604051808781526020018673ffffffffffffffffffffffffffffffffffffffff1673ffffffffffffffffffffffffffffffffffffffff1681526020018060200185815260200184815260200183815260200180602001838103835287818151815260200191508051906020019080838360005b83811015611fa2578082015181840152602081019050611f87565b50505050905090810190601f168015611fcf5780820380516001836020036101000a031916815260200191505b50838103825260028152602001807f696e0000000000000000000000000000000000000000000000000000000000008152506020019850505050505050505060405180910390a150505050565b60158260028110151561202b57fe5b018181548110151561203957fe5b9060005260206000209001600091509150505481565b60056001820360028110151561206157fe5b016000815480929190600101919050555050565b60178260028110151561208457fe5b018181548110151561209257fe5b9060005260206000209001600091509150505481565b60075481565b600a5481565b6013826002811015156120c357fe5b01818154811015156120d157fe5b9060005260206000209001600091509150505481565b6001816002811015156120f657fe5b016000915090505481565b60008061210e8385612311565b915060176001850360028110151561212257fe5b016001830381548110151561213357fe5b9060005260206000209001549050600060176001860360028110151561215557fe5b016001840381548110151561216657fe5b90600052602060002090018190555080600f6001860360028110151561218857fe5b016001840381548110151561219957fe5b90600052602060002090016000828254019250508190555050505050565b60095481565b600b816002811015156121cc57fe5b016000915090505481565b60006121e38585612311565b9050826017600186036002811015156121f857fe5b016001830381548110151561220957fe5b9060005260206000209001600082825401925050819055508160156001860360028110151561223457fe5b016001830381548110151561224557fe5b9060005260206000209001600082825401925050819055508160196001860360028110151561227057fe5b016001830381548110151561228157fe5b9060005260206000209001819055505050505050565b601b6020528060005260406000206000915090508060000154908060010160009054906101000a900473ffffffffffffffffffffffffffffffffffffffff169080600201549080600301549080600401549080600501549080600601549080600701549080600801549080600901549080600a015490508b565b600080600080600860009054906101000a900473ffffffffffffffffffffffffffffffffffffffff1673ffffffffffffffffffffffffffffffffffffffff168673ffffffffffffffffffffffffffffffffffffffff161415156124805760019250601b600084815260200190815260200160002060010160009054906101000a900473ffffffffffffffffffffffffffffffffffffffff169150601b60008481526020019081526020016000206009015490505b8573ffffffffffffffffffffffffffffffffffffffff168273ffffffffffffffffffffffffffffffffffffffff161415806124005750848114155b1561246257600183019250601b600084815260200190815260200160002060010160009054906101000a900473ffffffffffffffffffffffffffffffffffffffff169150601b60008481526020019081526020016000206009015490506123c5565b601b6000848152602001908152602001600020600a01549350612485565b600093505b50505092915050565b8154818355818115116124b5578183600052602060002091820191016124b4919061253a565b5b505050565b828054600181600116156101000203166002900490600052602060002090601f016020900481019282601f106124fb57805160ff1916838001178555612529565b82800160010185558215612529579182015b8281111561252857825182559160200191906001019061250d565b5b509050612536919061253a565b5090565b61255c91905b80821115612558576000816000905550600101612540565b5090565b905600a165627a7a723058208c7fd7106ea3a98edd16c71f0ffd9b198cd2549aeabe04efcc72316c08e4e7610029",
  "source": "pragma solidity ^0.4.18;\n\n// Base contract that is inheritied (Object Oriented view)\nimport \"./Ownable.sol\"; //Relative part in the same directory\n\n// NB: Contrary to Java, Solidity supports multiple inheritance\ncontract ChainList is Ownable {\n  // ********************Global variables definition********************\n  uint[2] public stock1; // Stock levels for seller\n  uint[2] public MSL1; // Minimum stock levels for seller\n  uint[2] public ProdA; // Number of products at production stage for seller\n  uint public balance; // Current smart contract balance\n  address public seller; // Seller address\n  uint public globalCounter;  // Number of InOutProducts\n  uint public globalClientCounter; // Total number of clients (for all products)\n  uint[2] public clientsNb; // Number of clients for each of the 3 products sold\n  uint[][2] public stockClient1; // Stock levels for each client\n  uint[][2] public Acc1; // Number of accepted products for each client\n  uint[][2] public Del1; // Number of delivered products for each client\n  uint[][2] public Pay1; // Number of paid products for each client\n  uint[][2] public Price1; // Remaining prices to be paid for each client\n  uint[][2] public Ord1; // Number of ordered products for each client\n  uint[][2] public prices1; // Agreed price for each client\n\n  // ********************Custom types definition********************\n  struct client {\n    uint id; //0\n    address organisation; //1\n    uint stock; //2\n    uint accepted; //3\n    uint delivered; //4\n    uint paid; //5\n    uint remPrice; //6\n    uint ordered; //7\n    uint agreedPrice; //8\n    uint product; //9\n    uint productCounter; //10\n  }\n\n  // Structure defining a product being checked in or out\n  struct inOutProduct {\n    uint id; //0\n    string name; //1\n    address organisation; //2\n    uint product; //3\n    uint date; //4\n    uint stock1; //5\n    string status; //6 (in or out)\n  }\n\n  // ********************Mapping definition********************\n  // Mapping linking a client id to a Client as defined above\n  mapping (uint => client) public clients;\n  // Mapping linking a product id to an InOutProduct as defined above\n  mapping (uint => inOutProduct) public products;\n\n  // ********************Events********************\n  // Event generated when a product is checked in or out\n  event logProductInOut(\n    uint _globalCounter,\n    address _organisation,\n    string _name,\n    uint _product,\n    uint256 _date,\n    uint _stock,\n    string _status // in or out\n  );\n\n  // Event generated when a new client is added\n  event logClientIn(\n    uint _clientCounter,\n    address _organisation\n  );\n\n  // ********************Functions********************\n  // Constructor function\n  function ChainList() public {\n    seller = msg.sender;\n    MSL1 = [1, 1]; // Arbitrary defined MSL for the seller\n  }\n\n  // deactivate the contract\n  function kill() public onlyOwner {\n    selfdestruct(owner);\n  }\n\n  // Add client function\n  // Allows to add a client to client's product list\n  function addClient(uint _product, address _client) public {\n    clientsNb[_product-1]++;\n    globalClientCounter++;\n    stockClient1[_product-1].push(0);\n    Acc1[_product-1].push(0);\n    Del1[_product-1].push(0);\n    Pay1[_product-1].push(0);\n    Price1[_product-1].push(0);\n    Ord1[_product-1].push(0);\n    prices1[_product-1].push(0);\n    uint clientCounter = clientsNb[_product-1];\n    clients[globalClientCounter] = client(\n      globalClientCounter,\n      _client,\n      stockClient1[_product-1][clientCounter-1],\n      Acc1[_product-1][clientCounter-1],\n      Del1[_product-1][clientCounter-1],\n      Pay1[_product-1][clientCounter-1],\n      Price1[_product-1][clientCounter-1],\n      Ord1[_product-1][clientCounter-1],\n      prices1[_product-1][clientCounter-1],\n      _product,\n      clientCounter\n    );\n    logClientIn(clientCounter, _client);\n  }\n\n  // Get client counter function\n  // Allows to retrieve client index for a specific product rather than global index\n  function getCounter(address _organisation, uint _product) public view returns(uint) {\n    if(_organisation != seller) {\n      uint i = 1;\n      address clientOrganisation = clients[i].organisation;\n      uint prodCategory = clients[i].product;\n      while(clientOrganisation != _organisation || prodCategory != _product) {\n        i = i+1;\n        clientOrganisation = clients[i].organisation;\n        prodCategory = clients[i].product;\n      }\n      return clients[i].productCounter;\n    }\n    else {\n      return 0;\n    }\n  }\n\n  // Deposit function\n  // Allows money to be temporarily stored in the contract\n  function deposit(address _organisation, uint _product) payable public {\n    uint clientCounter = getCounter(_organisation, _product);\n    uint stillToPay = Acc1[_product-1][clientCounter - 1] - Pay1[_product-1][clientCounter - 1];\n    Pay1[_product-1][clientCounter - 1] += stillToPay;\n    Price1[_product-1][clientCounter - 1] -= msg.value;\n    balance += msg.value;\n  }\n\n  // Accepting function\n  // Allows the supplier to receive the money corresponding to the sale when\n  // product is checked in by the client\n  function accept(uint256 _price) payable public {\n    seller.transfer(_price);\n  }\n\n  // Check-in and check-out function\n  // Allows both the seller and the supplier to check a product in / out\n  function newInOut(address _organisation, string _name, uint _product, string _status, address _client) public {\n    globalCounter++;\n    uint orgCounter = getCounter(_organisation, _product);\n    /**************\n        CHECK IN\n    ***************/\n    if(keccak256(_status) == keccak256(\"in\")) {\n      if(_organisation == seller) {\n        require(ProdA[_product-1] > 0);\n        stock1[_product-1]++;\n        ProdA[_product-1]--;\n      }\n      else {\n        require(Del1[_product-1][orgCounter - 1] > 0);\n        // A produc that was \"on delivery\" enters the stock\n        stockClient1[_product-1][orgCounter - 1]++;\n        Del1[_product-1][orgCounter - 1]--;\n\n      }\n    /**************\n       CHECK OUT\n    ***************/\n    } else if(keccak256(_status) == keccak256(\"out\")) {\n      // A product from the seller's stock enters the client's stock\n      if(_organisation == seller) {\n        require(_client != seller);\n        stock1[_product-1]--;\n        uint clientCounter = getCounter(_client, _product);\n        Del1[_product-1][clientCounter - 1]++;\n        Acc1[_product-1][clientCounter - 1]--;\n        Pay1[_product-1][clientCounter - 1]--;\n      }\n      else {\n        stockClient1[_product-1][orgCounter - 1]--;\n      }\n    }\n\n    // Create a new product in or out\n    products[globalCounter] = inOutProduct(\n      globalCounter,\n      _name,\n      _organisation,\n      _product,\n      block.timestamp,\n      stock1[(_product-1)],\n      _status\n    );\n\n    if(_organisation == seller) {\n      logProductInOut(globalCounter, _organisation, _name, _product, block.timestamp, stock1[(_product-1)], _status);\n    } else {\n      logProductInOut(globalCounter, _organisation, _name, _product, block.timestamp, stockClient1[_product-1][orgCounter - 1], _status);\n    }\n  }\n\n  // Automatic Check-In function\n  // Allows to automatically check a product in when QR code is scanned by the client\n  function autoNewIn(string _name, address _organisation, uint _product) public {\n    globalCounter++;\n    uint orgCounter = getCounter(_organisation, _product);\n      // A produc that was \"on delivery\" enters the stock\n      stockClient1[_product-1][orgCounter-1]++;\n      Del1[_product-1][orgCounter-1]--;\n\n    // Create a new product in or out\n    products[globalCounter] = inOutProduct(\n      globalCounter,\n      _name,\n      _organisation,\n      _product,\n      block.timestamp,\n      stock1[(_product-1)],\n      \"in\"\n    );\n    logProductInOut(globalCounter, _organisation, _name, _product, block.timestamp, stockClient1[_product-1][orgCounter-1], \"in\");\n  }\n\n  // Automatic production ordering Function\n  // Allows to place an automatic production order for the supplier when the stock\n  // goes below the minimum accepted stock level\n  function automaticProduction(uint _product) public {\n    uint fictiveStock = stock1[_product-1] + ProdA[_product-1];\n    if(MSL1[_product-1] - fictiveStock > 0) {\n      uint _quantity = MSL1[_product-1] - fictiveStock;\n      ProdA[_product-1] += _quantity;\n    }\n  }\n\n  // Classical ordering Function\n  // Allows a client to place an order to the seller\n  function placeOrder(address _organisation, uint _product, uint _quantity, uint _price) public {\n    uint clientCounter = getCounter(_organisation, _product);\n    Ord1[_product-1][clientCounter-1] += _quantity;\n    Price1[_product-1][clientCounter-1] += _price;\n    prices1[_product-1][clientCounter-1] = _price;\n  }\n\n  // Classical production ordering function\n  // Allows the supplier to place a manuel production order when needed\n  function releaseOrder(uint _product) public {\n    ProdA[_product-1]++;\n  }\n\n  // Order accepting Function\n  // Allows the supplier to accept the order passed by the seller\n  function acceptOrder(uint _product, address _client) public {\n    uint clientCounter = getCounter(_client, _product);\n    uint temp = Ord1[_product - 1][clientCounter - 1];\n    Ord1[_product-1][clientCounter - 1] = 0;\n    Acc1[_product-1][clientCounter - 1] += temp;\n  }\n\n  // Last change getting function\n  // Allows the user to get the InOutProduct structure generated\n  // NB: This function will be used in parallel with the mapping described before\n  function getLast() public view returns (uint) {\n    if(globalCounter > 0) {\n      return globalCounter;\n    } else {\n      return 0;\n    }\n  }\n}\n",
  "sourcePath": "C:\\Users\\gonza\\Desktop\\CMIDefence-Modified\\contracts\\ChainList.sol",
  "compiler": {
    "name": "solc",
    "version": "0.4.18+commit.9cf6e910.Emscripten.clang"
  },
  "schemaVersion": "1.0.1",
  "updatedAt": "2019-04-23T10:57:52.964Z"
}