{
  "contractName": "ChainList",
  "abi": [
    {
      "constant": true,
      "inputs": [],
      "name": "seller",
      "outputs": [
        {
          "name": "",
          "type": "address"
        }
      ],
      "payable": false,
      "stateMutability": "view",
      "type": "function"
    },
    {
      "constant": true,
      "inputs": [
        {
          "name": "",
          "type": "uint256"
        },
        {
          "name": "",
          "type": "uint256"
        }
      ],
      "name": "clients_add",
      "outputs": [
        {
          "name": "",
          "type": "address"
        }
      ],
      "payable": false,
      "stateMutability": "view",
      "type": "function"
    },
    {
      "constant": true,
      "inputs": [
        {
          "name": "",
          "type": "uint256"
        }
      ],
      "name": "msl",
      "outputs": [
        {
          "name": "",
          "type": "uint256"
        }
      ],
      "payable": false,
      "stateMutability": "view",
      "type": "function"
    },
    {
      "constant": true,
      "inputs": [],
      "name": "global_client_counter",
      "outputs": [
        {
          "name": "",
          "type": "uint256"
        }
      ],
      "payable": false,
      "stateMutability": "view",
      "type": "function"
    },
    {
      "constant": true,
      "inputs": [
        {
          "name": "",
          "type": "uint256"
        }
      ],
      "name": "prod",
      "outputs": [
        {
          "name": "",
          "type": "uint256"
        }
      ],
      "payable": false,
      "stateMutability": "view",
      "type": "function"
    },
    {
      "constant": true,
      "inputs": [
        {
          "name": "",
          "type": "address"
        }
      ],
      "name": "clients",
      "outputs": [
        {
          "name": "organisation",
          "type": "address"
        },
        {
          "name": "stock",
          "type": "uint256"
        },
        {
          "name": "accepted",
          "type": "uint256"
        },
        {
          "name": "delivered",
          "type": "uint256"
        },
        {
          "name": "rem_price",
          "type": "uint256"
        },
        {
          "name": "ordered",
          "type": "uint256"
        },
        {
          "name": "agreed_price",
          "type": "uint256"
        },
        {
          "name": "product",
          "type": "uint256"
        },
        {
          "name": "deposit_amount",
          "type": "uint256"
        },
        {
          "name": "deposit_date",
          "type": "uint256"
        }
      ],
      "payable": false,
      "stateMutability": "view",
      "type": "function"
    },
    {
      "constant": true,
      "inputs": [
        {
          "name": "",
          "type": "uint256"
        }
      ],
      "name": "stock",
      "outputs": [
        {
          "name": "",
          "type": "uint256"
        }
      ],
      "payable": false,
      "stateMutability": "view",
      "type": "function"
    },
    {
      "constant": true,
      "inputs": [],
      "name": "listID",
      "outputs": [
        {
          "name": "",
          "type": "uint256"
        }
      ],
      "payable": false,
      "stateMutability": "view",
      "type": "function"
    },
    {
      "constant": true,
      "inputs": [
        {
          "name": "",
          "type": "uint256"
        }
      ],
      "name": "clients_nb",
      "outputs": [
        {
          "name": "",
          "type": "uint256"
        }
      ],
      "payable": false,
      "stateMutability": "view",
      "type": "function"
    },
    {
      "constant": true,
      "inputs": [],
      "name": "balance",
      "outputs": [
        {
          "name": "",
          "type": "uint256"
        }
      ],
      "payable": false,
      "stateMutability": "view",
      "type": "function"
    },
    {
      "inputs": [],
      "payable": false,
      "stateMutability": "nonpayable",
      "type": "constructor"
    },
    {
      "anonymous": false,
      "inputs": [
        {
          "indexed": false,
          "name": "organisation",
          "type": "address"
        },
        {
          "indexed": false,
          "name": "name",
          "type": "string"
        },
        {
          "indexed": false,
          "name": "product",
          "type": "uint256"
        },
        {
          "indexed": false,
          "name": "date",
          "type": "uint256"
        },
        {
          "indexed": false,
          "name": "stock",
          "type": "uint256"
        },
        {
          "indexed": false,
          "name": "status",
          "type": "string"
        },
        {
          "indexed": false,
          "name": "listID",
          "type": "uint256"
        },
        {
          "indexed": false,
          "name": "client",
          "type": "address"
        }
      ],
      "name": "LogProductInOut",
      "type": "event"
    },
    {
      "anonymous": false,
      "inputs": [
        {
          "indexed": false,
          "name": "organisation",
          "type": "address"
        },
        {
          "indexed": false,
          "name": "product",
          "type": "uint256"
        },
        {
          "indexed": false,
          "name": "name",
          "type": "string"
        },
        {
          "indexed": false,
          "name": "date",
          "type": "uint256"
        },
        {
          "indexed": false,
          "name": "client",
          "type": "address"
        },
        {
          "indexed": false,
          "name": "listID",
          "type": "uint256"
        }
      ],
      "name": "LogNewLocation",
      "type": "event"
    },
    {
      "anonymous": false,
      "inputs": [
        {
          "indexed": false,
          "name": "quantity",
          "type": "uint256"
        },
        {
          "indexed": false,
          "name": "price",
          "type": "uint256"
        },
        {
          "indexed": false,
          "name": "organisation",
          "type": "address"
        }
      ],
      "name": "LogChangePrice",
      "type": "event"
    },
    {
      "constant": false,
      "inputs": [],
      "name": "kill",
      "outputs": [],
      "payable": false,
      "stateMutability": "nonpayable",
      "type": "function"
    },
    {
      "constant": false,
      "inputs": [
        {
          "name": "client_add",
          "type": "address"
        },
        {
          "name": "amount_to_refund",
          "type": "uint256"
        }
      ],
      "name": "refund",
      "outputs": [],
      "payable": true,
      "stateMutability": "payable",
      "type": "function"
    },
    {
      "constant": false,
      "inputs": [
        {
          "name": "product",
          "type": "uint256"
        },
        {
          "name": "client_add",
          "type": "address"
        }
      ],
      "name": "addClient",
      "outputs": [],
      "payable": false,
      "stateMutability": "nonpayable",
      "type": "function"
    },
    {
      "constant": false,
      "inputs": [
        {
          "name": "organisation",
          "type": "address"
        }
      ],
      "name": "deposit",
      "outputs": [],
      "payable": true,
      "stateMutability": "payable",
      "type": "function"
    },
    {
      "constant": false,
      "inputs": [
        {
          "name": "price_to_pay",
          "type": "uint256"
        },
        {
          "name": "organisation",
          "type": "address"
        }
      ],
      "name": "withdraw",
      "outputs": [],
      "payable": true,
      "stateMutability": "payable",
      "type": "function"
    },
    {
      "constant": false,
      "inputs": [
        {
          "name": "organisation",
          "type": "address"
        },
        {
          "name": "name",
          "type": "string"
        },
        {
          "name": "product",
          "type": "uint256"
        },
        {
          "name": "client_add",
          "type": "address"
        }
      ],
      "name": "addStep",
      "outputs": [],
      "payable": false,
      "stateMutability": "nonpayable",
      "type": "function"
    },
    {
      "constant": false,
      "inputs": [
        {
          "name": "organisation",
          "type": "address"
        },
        {
          "name": "name",
          "type": "string"
        },
        {
          "name": "product",
          "type": "uint256"
        },
        {
          "name": "status",
          "type": "string"
        },
        {
          "name": "client_add",
          "type": "address"
        }
      ],
      "name": "newInOut",
      "outputs": [],
      "payable": false,
      "stateMutability": "nonpayable",
      "type": "function"
    },
    {
      "constant": false,
      "inputs": [
        {
          "name": "name",
          "type": "string"
        },
        {
          "name": "organisation",
          "type": "address"
        },
        {
          "name": "product",
          "type": "uint256"
        }
      ],
      "name": "autoNewIn",
      "outputs": [],
      "payable": false,
      "stateMutability": "nonpayable",
      "type": "function"
    },
    {
      "constant": false,
      "inputs": [
        {
          "name": "product",
          "type": "uint256"
        }
      ],
      "name": "autoProduction",
      "outputs": [],
      "payable": false,
      "stateMutability": "nonpayable",
      "type": "function"
    },
    {
      "constant": false,
      "inputs": [
        {
          "name": "organisation",
          "type": "address"
        },
        {
          "name": "quantity",
          "type": "uint256"
        },
        {
          "name": "agreed_price",
          "type": "uint256"
        }
      ],
      "name": "placeOrder",
      "outputs": [],
      "payable": false,
      "stateMutability": "nonpayable",
      "type": "function"
    },
    {
      "constant": false,
      "inputs": [
        {
          "name": "product",
          "type": "uint256"
        }
      ],
      "name": "releaseOrder",
      "outputs": [],
      "payable": false,
      "stateMutability": "nonpayable",
      "type": "function"
    },
    {
      "constant": false,
      "inputs": [
        {
          "name": "client_add",
          "type": "address"
        }
      ],
      "name": "acceptOrder",
      "outputs": [],
      "payable": false,
      "stateMutability": "nonpayable",
      "type": "function"
    }
  ],
  "bytecode": "0x606060405234156200001057600080fd5b336000806101000a81548173ffffffffffffffffffffffffffffffffffffffff021916908373ffffffffffffffffffffffffffffffffffffffff16021790555033600960006101000a81548173ffffffffffffffffffffffffffffffffffffffff021916908373ffffffffffffffffffffffffffffffffffffffff1602179055506040805190810160405280600160ff168152602001600160ff168152506003906002620000c0929190620000c7565b5062000139565b8260028101928215620000fe579160200282015b82811115620000fd578251829060ff16905591602001919060010190620000db565b5b5090506200010d919062000111565b5090565b6200013691905b808211156200013257600081600090555060010162000118565b5090565b90565b61211680620001496000396000f300606060405260043610610127576000357c0100000000000000000000000000000000000000000000000000000000900463ffffffff168062f714ce1461012c57806308551a53146101635780631bb04bd0146101b85780633a33248f146102245780633bf55d99146102c8578063410085df1461030157806341c0e1b514610338578063428919631461034d5780635301ca531461038f5780635705e7cb146104765780636090f159146104ad578063611df3e0146104d657806361eed2a91461050d57806377e16afe146105c557806383cf102114610610578063886534be1461064757806392aa16171461067057806397926923146106f5578063ae2f75891461072c578063b69ef8a81461074f578063f340fa0114610778578063fb6351f4146107a6575b600080fd5b610161600480803590602001909190803573ffffffffffffffffffffffffffffffffffffffff169060200190919050506107c9565b005b341561016e57600080fd5b6101766108e9565b604051808273ffffffffffffffffffffffffffffffffffffffff1673ffffffffffffffffffffffffffffffffffffffff16815260200191505060405180910390f35b34156101c357600080fd5b6101e2600480803590602001909190803590602001909190505061090f565b604051808273ffffffffffffffffffffffffffffffffffffffff1673ffffffffffffffffffffffffffffffffffffffff16815260200191505060405180910390f35b341561022f57600080fd5b6102c6600480803573ffffffffffffffffffffffffffffffffffffffff1690602001909190803590602001908201803590602001908080601f0160208091040260200160405190810160405280939291908181526020018383808284378201915050505050509190803590602001909190803573ffffffffffffffffffffffffffffffffffffffff1690602001909190505061095f565b005b34156102d357600080fd5b6102ff600480803573ffffffffffffffffffffffffffffffffffffffff16906020019091905050610a95565b005b610336600480803573ffffffffffffffffffffffffffffffffffffffff16906020019091908035906020019091905050610b7e565b005b341561034357600080fd5b61034b610cd0565b005b341561035857600080fd5b61038d600480803590602001909190803573ffffffffffffffffffffffffffffffffffffffff16906020019091905050610d65565b005b341561039a57600080fd5b610474600480803573ffffffffffffffffffffffffffffffffffffffff1690602001909190803590602001908201803590602001908080601f0160208091040260200160405190810160405280939291908181526020018383808284378201915050505050509190803590602001909190803590602001908201803590602001908080601f0160208091040260200160405190810160405280939291908181526020018383808284378201915050505050509190803573ffffffffffffffffffffffffffffffffffffffff16906020019091905050611022565b005b341561048157600080fd5b610497600480803590602001909190505061198e565b6040518082815260200191505060405180910390f35b34156104b857600080fd5b6104c06119a8565b6040518082815260200191505060405180910390f35b34156104e157600080fd5b6104f760048080359060200190919050506119ae565b6040518082815260200191505060405180910390f35b341561051857600080fd5b610544600480803573ffffffffffffffffffffffffffffffffffffffff169060200190919050506119c8565b604051808b73ffffffffffffffffffffffffffffffffffffffff1673ffffffffffffffffffffffffffffffffffffffff1681526020018a81526020018981526020018881526020018781526020018681526020018581526020018481526020018381526020018281526020019a505050505050505050505060405180910390f35b34156105d057600080fd5b61060e600480803573ffffffffffffffffffffffffffffffffffffffff16906020019091908035906020019091908035906020019091905050611a3c565b005b341561061b57600080fd5b6106316004808035906020019091905050611be6565b6040518082815260200191505060405180910390f35b341561065257600080fd5b61065a611c00565b6040518082815260200191505060405180910390f35b341561067b57600080fd5b6106f3600480803590602001908201803590602001908080601f0160208091040260200160405190810160405280939291908181526020018383808284378201915050505050509190803573ffffffffffffffffffffffffffffffffffffffff16906020019091908035906020019091905050611c06565b005b341561070057600080fd5b6107166004808035906020019091905050611e3e565b6040518082815260200191505060405180910390f35b341561073757600080fd5b61074d6004808035906020019091905050611e58565b005b341561075a57600080fd5b610762611ed9565b6040518082815260200191505060405180910390f35b6107a4600480803573ffffffffffffffffffffffffffffffffffffffff16906020019091905050611edf565b005b34156107b157600080fd5b6107c76004808035906020019091905050611fb4565b005b600080600f60008473ffffffffffffffffffffffffffffffffffffffff1673ffffffffffffffffffffffffffffffffffffffff168152602001908152602001600020600701541415151561081c57600080fd5b600f60008373ffffffffffffffffffffffffffffffffffffffff1673ffffffffffffffffffffffffffffffffffffffff16815260200190815260200160002090508281600801541015151561087057600080fd5b600960009054906101000a900473ffffffffffffffffffffffffffffffffffffffff1673ffffffffffffffffffffffffffffffffffffffff166108fc849081150290604051600060405180830381858888f1935050505015156108d257600080fd5b828160080160008282540392505081905550505050565b600960009054906101000a900473ffffffffffffffffffffffffffffffffffffffff1681565b600d8260028110151561091e57fe5b018181548110151561092c57fe5b90600052602060002090016000915091509054906101000a900473ffffffffffffffffffffffffffffffffffffffff1681565b6008600081548092919060010191905055507fa2efb22cae21c296323279362eee0ff9dbf01006e5a4d1b5127937425ab019b28483854285600854604051808773ffffffffffffffffffffffffffffffffffffffff1673ffffffffffffffffffffffffffffffffffffffff168152602001868152602001806020018581526020018473ffffffffffffffffffffffffffffffffffffffff1673ffffffffffffffffffffffffffffffffffffffff168152602001838152602001828103825286818151815260200191508051906020019080838360005b83811015610a50578082015181840152602081019050610a35565b50505050905090810190601f168015610a7d5780820380516001836020036101000a031916815260200191505b5097505050505050505060405180910390a150505050565b6000806000809054906101000a900473ffffffffffffffffffffffffffffffffffffffff1673ffffffffffffffffffffffffffffffffffffffff163373ffffffffffffffffffffffffffffffffffffffff16141515610af357600080fd5b600f60008473ffffffffffffffffffffffffffffffffffffffff1673ffffffffffffffffffffffffffffffffffffffff168152602001908152602001600020915060008260020154141515610b4757600080fd5b81600501549050600081111515610b5d57600080fd5b60008260050181905550808260020160008282540192505081905550505050565b600080600f60008573ffffffffffffffffffffffffffffffffffffffff1673ffffffffffffffffffffffffffffffffffffffff1681526020019081526020016000206007015414151515610bd157600080fd5b600f60008473ffffffffffffffffffffffffffffffffffffffff1673ffffffffffffffffffffffffffffffffffffffff16815260200190815260200160002090506000816009015414158015610c3957506002603c82600901544203811515610c3657fe5b04115b8015610c4a57506000816002015414155b1515610c5557600080fd5b600081600601548260030154028260080154031115610ccb578273ffffffffffffffffffffffffffffffffffffffff166108fc839081150290604051600060405180830381858888f193505050501515610cae57600080fd5b600081600201819055508181600801600082825403925050819055505b505050565b6000809054906101000a900473ffffffffffffffffffffffffffffffffffffffff1673ffffffffffffffffffffffffffffffffffffffff163373ffffffffffffffffffffffffffffffffffffffff16141515610d2b57600080fd5b6000809054906101000a900473ffffffffffffffffffffffffffffffffffffffff1673ffffffffffffffffffffffffffffffffffffffff16ff5b60008060009054906101000a900473ffffffffffffffffffffffffffffffffffffffff1673ffffffffffffffffffffffffffffffffffffffff163373ffffffffffffffffffffffffffffffffffffffff16141515610dc257600080fd5b600190506000600f60008473ffffffffffffffffffffffffffffffffffffffff1673ffffffffffffffffffffffffffffffffffffffff16815260200190815260200160002060070154141515610e1757600090505b60011515811515141515610e2a57600080fd5b600b60018403600281101515610e3c57fe5b0160008154809291906001019190505550600a60008154809291906001019190505550600d60018403600281101515610e7157fe5b018054806001018281610e849190612099565b9160005260206000209001600084909190916101000a81548173ffffffffffffffffffffffffffffffffffffffff021916908373ffffffffffffffffffffffffffffffffffffffff16021790555050610140604051908101604052808373ffffffffffffffffffffffffffffffffffffffff168152602001600081526020016000815260200160008152602001600081526020016000815260200160008152602001848152602001600081526020016000815250600f60008473ffffffffffffffffffffffffffffffffffffffff1673ffffffffffffffffffffffffffffffffffffffff16815260200190815260200160002060008201518160000160006101000a81548173ffffffffffffffffffffffffffffffffffffffff021916908373ffffffffffffffffffffffffffffffffffffffff1602179055506020820151816001015560408201518160020155606082015181600301556080820151816004015560a0820151816005015560c0820151816006015560e0820151816007015561010082015181600801556101208201518160090155905050505050565b60008060405180807f696e0000000000000000000000000000000000000000000000000000000000008152506002019050604051809103902060001916846040518082805190602001908083835b6020831015156110955780518252602082019150602081019050602083039250611070565b6001836020036101000a038019825116818451168082178552505050505050905001915050604051809103902060001916141561126457600960009054906101000a900473ffffffffffffffffffffffffffffffffffffffff1673ffffffffffffffffffffffffffffffffffffffff168773ffffffffffffffffffffffffffffffffffffffff16141561118f57600060056001870360028110151561113657fe5b015411151561114457600080fd5b600180860360028110151561115557fe5b016000815480929190600101919050555060056001860360028110151561117857fe5b01600081548092919060019003919050555061125f565b6000600f60008973ffffffffffffffffffffffffffffffffffffffff1673ffffffffffffffffffffffffffffffffffffffff16815260200190815260200160002060070154141515156111e157600080fd5b600f60008873ffffffffffffffffffffffffffffffffffffffff1673ffffffffffffffffffffffffffffffffffffffff16815260200190815260200160002091506000826003015411151561123557600080fd5b81600101600081548092919060010191905055508160030160008154809291906001900391905055505b61158b565b60405180807f6f757400000000000000000000000000000000000000000000000000000000008152506003019050604051809103902060001916846040518082805190602001908083835b6020831015156112d457805182526020820191506020810190506020830392506112af565b6001836020036101000a038019825116818451168082178552505050505050905001915050604051809103902060001916141561158a57600960009054906101000a900473ffffffffffffffffffffffffffffffffffffffff1673ffffffffffffffffffffffffffffffffffffffff168773ffffffffffffffffffffffffffffffffffffffff161415611495576000600180870360028110151561137457fe5b01541180156113d15750600960009054906101000a900473ffffffffffffffffffffffffffffffffffffffff1673ffffffffffffffffffffffffffffffffffffffff168373ffffffffffffffffffffffffffffffffffffffff1614155b15156113dc57600080fd5b600f60008473ffffffffffffffffffffffffffffffffffffffff1673ffffffffffffffffffffffffffffffffffffffff16815260200190815260200160002090506000816002015411801561143957508060060154816008015410155b151561144457600080fd5b600180860360028110151561145557fe5b0160008154809291906001900391905055508060030160008154809291906001019190505550806002016000815480929190600190039190505550611589565b6000600f60008973ffffffffffffffffffffffffffffffffffffffff1673ffffffffffffffffffffffffffffffffffffffff168152602001908152602001600020600701541415801561152a57506000600f60008973ffffffffffffffffffffffffffffffffffffffff1673ffffffffffffffffffffffffffffffffffffffff16815260200190815260200160002060010154115b151561153557600080fd5b600f60008873ffffffffffffffffffffffffffffffffffffffff1673ffffffffffffffffffffffffffffffffffffffff16815260200190815260200160002060010160008154809291906001900391905055505b5b5b600960009054906101000a900473ffffffffffffffffffffffffffffffffffffffff1673ffffffffffffffffffffffffffffffffffffffff168773ffffffffffffffffffffffffffffffffffffffff16141561179d576008600081548092919060010191905055507f59f5270d8745fad5d8b868a4b355a94d097037ab7ac84e8c63b2532b9db0afab878787426001808b0360028110151561162957fe5b0154896008548a604051808973ffffffffffffffffffffffffffffffffffffffff1673ffffffffffffffffffffffffffffffffffffffff16815260200180602001888152602001878152602001868152602001806020018581526020018473ffffffffffffffffffffffffffffffffffffffff1673ffffffffffffffffffffffffffffffffffffffff16815260200183810383528a818151815260200191508051906020019080838360005b838110156116f05780820151818401526020810190506116d5565b50505050905090810190601f16801561171d5780820380516001836020036101000a031916815260200191505b50838103825286818151815260200191508051906020019080838360005b8381101561175657808201518184015260208101905061173b565b50505050905090810190601f1680156117835780820380516001836020036101000a031916815260200191505b509a505050505050505050505060405180910390a1611985565b6008600081548092919060010191905055507f59f5270d8745fad5d8b868a4b355a94d097037ab7ac84e8c63b2532b9db0afab87878742600f60008d73ffffffffffffffffffffffffffffffffffffffff1673ffffffffffffffffffffffffffffffffffffffff16815260200190815260200160002060010154896008548a604051808973ffffffffffffffffffffffffffffffffffffffff1673ffffffffffffffffffffffffffffffffffffffff16815260200180602001888152602001878152602001868152602001806020018581526020018473ffffffffffffffffffffffffffffffffffffffff1673ffffffffffffffffffffffffffffffffffffffff16815260200183810383528a818151815260200191508051906020019080838360005b838110156118dc5780820151818401526020810190506118c1565b50505050905090810190601f1680156119095780820380516001836020036101000a031916815260200191505b50838103825286818151815260200191508051906020019080838360005b83811015611942578082015181840152602081019050611927565b50505050905090810190601f16801561196f5780820380516001836020036101000a031916815260200191505b509a505050505050505050505060405180910390a15b50505050505050565b60038160028110151561199d57fe5b016000915090505481565b600a5481565b6005816002811015156119bd57fe5b016000915090505481565b600f6020528060005260406000206000915090508060000160009054906101000a900473ffffffffffffffffffffffffffffffffffffffff1690806001015490806002015490806003015490806004015490806005015490806006015490806007015490806008015490806009015490508a565b600080600f60008673ffffffffffffffffffffffffffffffffffffffff1673ffffffffffffffffffffffffffffffffffffffff1681526020019081526020016000206007015414151515611a8f57600080fd5b600f60008573ffffffffffffffffffffffffffffffffffffffff1673ffffffffffffffffffffffffffffffffffffffff168152602001908152602001600020905080600601548214158015611ae957506000816006015414155b15611bb25760008160030154826002015401141515611b0757600080fd5b7f6021e939fb61daaea45ebde431bb5f1fe9eec14aaf0b428d037086f0a395a12b838260050154018386604051808481526020018381526020018273ffffffffffffffffffffffffffffffffffffffff1673ffffffffffffffffffffffffffffffffffffffff168152602001935050505060405180910390a1828160050160008282540192505081905550818160040160008282540192505081905550818160060181905550611be0565b8281600501600082825401925050819055508181600401600082825401925050819055508181600601819055505b50505050565b600181600281101515611bf557fe5b016000915090505481565b60085481565b600080600f60008573ffffffffffffffffffffffffffffffffffffffff1673ffffffffffffffffffffffffffffffffffffffff1681526020019081526020016000206007015414151515611c5957600080fd5b600f60008473ffffffffffffffffffffffffffffffffffffffff1673ffffffffffffffffffffffffffffffffffffffff168152602001908152602001600020905080600101600081548092919060010191905055508060030160008154809291906001900391905055506008600081548092919060010191905055507f59f5270d8745fad5d8b868a4b355a94d097037ab7ac84e8c63b2532b9db0afab83858442856001015460085489604051808873ffffffffffffffffffffffffffffffffffffffff1673ffffffffffffffffffffffffffffffffffffffff16815260200180602001878152602001868152602001858152602001806020018581526020018473ffffffffffffffffffffffffffffffffffffffff1673ffffffffffffffffffffffffffffffffffffffff168152602001838103835289818151815260200191508051906020019080838360005b83811015611dc3578082015181840152602081019050611da8565b50505050905090810190601f168015611df05780820380516001836020036101000a031916815260200191505b50838103825260028152602001807f696e000000000000000000000000000000000000000000000000000000000000815250602001995050505050505050505060405180910390a150505050565b600b81600281101515611e4d57fe5b016000915090505481565b6000809054906101000a900473ffffffffffffffffffffffffffffffffffffffff1673ffffffffffffffffffffffffffffffffffffffff163373ffffffffffffffffffffffffffffffffffffffff16141515611eb357600080fd5b600560018203600281101515611ec557fe5b016000815480929190600101919050555050565b60075481565b600080600f60008473ffffffffffffffffffffffffffffffffffffffff1673ffffffffffffffffffffffffffffffffffffffff1681526020019081526020016000206007015414151515611f3257600080fd5b600f60008373ffffffffffffffffffffffffffffffffffffffff1673ffffffffffffffffffffffffffffffffffffffff1681526020019081526020016000209050428160090181905550348160080160008282540192505081905550348160040160008282540392505081905550346007600082825401925050819055505050565b6000806000809054906101000a900473ffffffffffffffffffffffffffffffffffffffff1673ffffffffffffffffffffffffffffffffffffffff163373ffffffffffffffffffffffffffffffffffffffff1614151561201257600080fd5b60056001840360028110151561202457fe5b0154600180850360028110151561203757fe5b015401915060008260036001860360028110151561205157fe5b0154031115612094578160036001850360028110151561206d57fe5b01540390508060056001850360028110151561208557fe5b01600082825401925050819055505b505050565b8154818355818115116120c0578183600052602060002091820191016120bf91906120c5565b5b505050565b6120e791905b808211156120e35760008160009055506001016120cb565b5090565b905600a165627a7a723058206301ce79d10b03ad3d3728aa19a13f8f3062bcb9292aecaa46e1f5ab40807b350029",
  "source": "pragma solidity ^0.4.18;\n\n// Base contract that is inheritied (Object Oriented view)\nimport \"./Ownable.sol\"; //Relative part in the same directory\n\n// NB: Contrary to Java, Solidity supports multiple inheritance\ncontract ChainList is Ownable {\n  // ********************Global variables definition********************\n  uint[2] public stock; // Stock levels for seller\n  uint[2] public msl; // Minimum stock levels for seller\n  uint[2] public prod; // Number of products at production stage for seller\n  uint public balance; // Current smart contract balance\n  uint public listID; // Number of the list element\n  address public seller; // Seller address\n  uint public global_client_counter; // Total number of clients (for all products)\n  uint[2] public clients_nb; // Number of clients for each of the 2 products sold\n  address[][2] public clients_add; // Client addresses for each product\n\n  // ********************Custom types definition********************\n  struct Client {\n    address organisation; //0\n    uint stock; //1\n    uint accepted; //2\n    uint delivered; //3\n    uint rem_price; //4\n    uint ordered; //5\n    uint agreed_price; //6\n    uint product; //7\n    uint deposit_amount; //8\n    uint deposit_date; //9\n  }\n\n  // ********************Mapping definition********************\n  // Mapping linking a client address to a Client as defined above\n  mapping (address => Client) public clients;\n\n  // ********************Events********************\n  // Event generated when a product is checked in or out\n  event LogProductInOut(\n    address organisation,\n    string name,\n    uint product,\n    uint256 date,\n    uint stock,\n    string status, // in or out\n    uint listID,\n    address client\n  );\n\n  // Event generated when a logistics partner ackowledges reception of the product\n  event LogNewLocation(\n    address organisation,\n    uint product,\n    string name,\n    uint256 date,\n    address client,\n    uint listID\n  );\n\n  event LogChangePrice(\n    uint quantity,\n    uint price,\n    address organisation\n  );\n\n  // ********************Functions********************\n  // Constructor function\n  function ChainList() public {\n    seller = msg.sender;\n    msl = [1, 1]; // Arbitrary defined MSL for the seller\n  }\n\n  // deactivate the contract\n  function kill() public onlyOwner {\n    selfdestruct(owner);\n  }\n\n  function refund(address client_add, uint amount_to_refund) payable public {\n    require(clients[client_add].product != 0);\n    Client storage client_org = clients[client_add];\n    //block.timestamp - client_org.deposit_date /60/60 > 2\n    require(client_org.deposit_date != 0 && (block.timestamp - client_org.deposit_date) / 60 > 2 && client_org.accepted != 0);\n    if(client_org.deposit_amount - (client_org.delivered * client_org.agreed_price) > 0) {\n      client_add.transfer(amount_to_refund);\n      client_org.accepted = 0;\n      client_org.deposit_amount -= amount_to_refund;\n    }\n  }\n  // Pas mieux d'imposer une seule commande accepte  la fois ?\n\n  // Add client function\n  // Allows to add a client to client's product list\n  function addClient(uint product, address client_add) public onlyOwner {\n    bool new_client = true;\n    if(clients[client_add].product != 0)\n      new_client = false;\n    require(new_client == true);\n    clients_nb[product - 1]++;\n    global_client_counter++;\n    clients_add[product - 1].push(client_add);\n    clients[client_add] = Client(\n      client_add, //organisation\n      0, //stock\n      0, //accepted\n      0, //delivered\n      0, //rem_price\n      0, //ordered\n      0, // agreed_price\n      product, //product\n      0, //deposit_amount\n      0 //deposit_date\n    );\n  }\n\n  // Deposit function\n  // Allows money to be temporarily stored in the contract\n  function deposit(address organisation) payable public {\n    require(clients[organisation].product != 0);\n    Client storage client_org = clients[organisation];\n    client_org.deposit_date = block.timestamp;\n    client_org.deposit_amount += msg.value;\n    client_org.rem_price -= msg.value;\n    balance += msg.value;\n  }\n\n  // Withdrawal function\n  // Allows the supplier to receive the money corresponding to the sale when\n  // product is checked in by the client\n  function withdraw(uint256 price_to_pay, address organisation) payable public {\n    require(clients[organisation].product != 0);\n    Client storage client_org = clients[organisation];\n    require(client_org.deposit_amount >= price_to_pay);\n    seller.transfer(price_to_pay);\n    client_org.deposit_amount -= price_to_pay;\n  }\n\n  // Add logistic step function\n  // Allows identified logistics partners to acknowledge reception of the products\n  function addStep(address organisation, string name, uint product, address client_add) public {\n    listID++;\n    LogNewLocation(organisation, product, name, block.timestamp, client_add, listID);\n  }\n\n  // Check-in and check-out function\n  // Allows both the seller and the supplier to check a product in / out\n  function newInOut(address organisation, string name, uint product, string status, address client_add) public {\n    /**************\n        CHECK IN\n    ***************/\n    if(keccak256(status) == keccak256(\"in\")) {\n      if(organisation == seller) {\n        require(prod[product - 1] > 0);\n        stock[product - 1]++;\n        prod[product - 1]--;\n      }\n      else {\n        require(clients[organisation].product != 0);\n        Client storage client_org = clients[organisation];\n        require(client_org.delivered > 0);\n        // A produc that was \"on delivery\" enters the stock\n        client_org.stock++;\n        client_org.delivered--;\n      }\n    /**************\n       CHECK OUT\n    ***************/\n    } else if(keccak256(status) == keccak256(\"out\")) {\n      // A product from the seller's stock enters the client's stock\n      if(organisation == seller) {\n        require(stock[product - 1] > 0 && client_add != seller);\n        Client storage client_org2 = clients[client_add];\n        require(client_org2.accepted > 0 && client_org2.deposit_amount >= client_org2.agreed_price);\n        stock[product - 1]--;\n        client_org2.delivered++;\n        client_org2.accepted--;\n      }\n      else {\n        require(clients[organisation].product != 0 && clients[organisation].stock > 0);\n        clients[organisation].stock--;\n      }\n    }\n\n    if(organisation == seller) {\n      listID++;\n      LogProductInOut(organisation, name, product, block.timestamp, stock[product - 1], status, listID, client_add);\n    } else {\n      listID++;\n      LogProductInOut(organisation, name, product, block.timestamp, clients[organisation].stock, status, listID, client_add);\n    }\n  }\n\n  // Automatic Check-In function\n  // Allows to automatically check a product in when QR code is scanned by the client\n  function autoNewIn(string name, address organisation, uint product) public {\n    require(clients[organisation].product != 0);\n    // A product that was \"on delivery\" enters the stock\n    Client storage client_org = clients[organisation];\n    client_org.stock++;\n    client_org.delivered--;\n    listID++;\n    LogProductInOut(organisation, name, product, block.timestamp, client_org.stock, \"in\", listID, organisation);\n  }\n\n  // Automatic production ordering Function\n  // Allows to place an automatic production order for the supplier when the stock\n  // goes below the minimum accepted stock level\n  function autoProduction(uint product) public onlyOwner {\n    uint fictive_stock = stock[product - 1] + prod[product - 1];\n    if(msl[product - 1] - fictive_stock > 0) {\n      uint quantity = msl[product - 1] - fictive_stock;\n      prod[product - 1] += quantity;\n    }\n  }\n\n  // Classical ordering Function\n  // Allows a client to place an order to the seller\n  function placeOrder(address organisation, uint quantity, uint agreed_price) public {\n    require(clients[organisation].product != 0);\n      Client storage client_org = clients[organisation];\n      if(agreed_price != client_org.agreed_price && client_org.agreed_price != 0) {\n        require((client_org.accepted + client_org.delivered) == 0);\n        LogChangePrice(client_org.ordered + quantity, agreed_price, organisation);\n        client_org.ordered += quantity;\n        client_org.rem_price += agreed_price;\n        client_org.agreed_price = agreed_price;\n      } else {\n      client_org.ordered += quantity;\n      client_org.rem_price += agreed_price;\n      client_org.agreed_price = agreed_price;\n    }\n  }\n\n  // Classical production ordering function\n  // Allows the supplier to place a manual production order when needed\n  function releaseOrder(uint product) public onlyOwner {\n    prod[product - 1]++;\n  }\n\n  // Order accepting Function\n  // Allows the supplier to accept the order passed by the seller\n  function acceptOrder(address client_add) public onlyOwner {\n    Client storage client_org = clients[client_add];\n    require(client_org.accepted == 0);\n    uint temp = client_org.ordered;\n    require(temp > 0);\n    client_org.ordered = 0;\n    client_org.accepted += temp;\n  }\n}\n",
  "sourcePath": "C:\\Users\\gonza\\Desktop\\FinalProject\\CMIDefence-Modified\\contracts\\ChainList.sol",
  "compiler": {
    "name": "solc",
    "version": "0.4.19+commit.c4cbbb05.Emscripten.clang"
  },
  "schemaVersion": "2.0.0",
  "updatedAt": "2019-05-16T11:53:05.611Z"
}